:100000000C9453000C947B000C947B000C947B00AC
:100010000C947B000C947B000C947B000C947B0074
:100020000C947B000C947B000C947B000C947B0064
:100030000C947B000C947B000C947B000C947B0054
:100040000C940F030C947B000C9417020C9449023F
:100050000C947B000C947B000C947B000C947B0034
:100060000C947B000C947B0001020408102040805B
:1000700001020408102001020408102004040404F2
:100080000404040402020202020203030303030342
:1000900000000000250028002B00000000002400C4
:1000A00027002A00790211241FBECFEFD8E0DEBF5F
:1000B000CDBF11E0A0E0B1E0E2EBF8E002C00590B6
:1000C0000D92A631B107D9F721E0A6E1B1E001C058
:1000D0001D92AA3CB207E1F710E0C3E5D0E004C0EE
:1000E0002197FE010E945104C235D107C9F70E9431
:1000F00000030C9457040C940000CF93DF93EC01A1
:1001000088E090E09B838A8389E090E09D838C83E4
:1001100086E090E09F838E8361E088E00E94F20396
:1001200061E08C810E94F20361E08E810E94F20303
:100130008BE090E0998788878CE090E09B878A87A6
:1001400085E090E09D878C8761E08BE00E94F20360
:1001500061E08A850E94F20361E08C850E94F203CF
:1001600026E040E052EC61E070E084E291E0DF9153
:10017000CF910C94B50186E191E00C947D0084E26E
:1001800091E00E94DB00892B81F084E291E00E94E3
:10019000F50061E48134910521F08234910529F460
:1001A00062E484E291E00E94ED0264E670E080E0A7
:1001B00090E00C947E03FC01918D228D892F90E0BC
:1001C000805C9F4F821B91098F7399270895FC01D2
:1001D000918D828D981731F0828DE80FF11D858DFC
:1001E00090E008958FEF9FEF0895FC01918D828D2F
:1001F000981761F0A28DAE0FBF2FB11D5D968C9147
:10020000928D9F5F9F73928F90E008958FEF9FEF85
:100210000895FC01538D448D252F30E0842F90E00C
:10022000821B930B541710F0CF96089501970895F1
:100230008FE692E0892B49F080E090E0892B29F04D
:100240000E946F0281110C9400000895FC01A48D9E
:10025000A80FB92FB11DA35ABF4F2C91848D90E0E8
:1002600001968F739927848FA689B7892C93A089CB
:10027000B1898C91837080648C93938D848D981355
:1002800006C00288F389E02D80818F7D80830895E8
:10029000CF93DF93EC01888D8823B9F0AA89BB89BD
:1002A000E889F9898C9185FD03C0808186FD0DC0A8
:1002B0000FB607FCF7CF8C9185FFF2CF808185FFC9
:1002C000EDCFCE010E942601E9CFDF91CF910895B5
:1002D000EF92FF920F931F93CF93DF93EC0181E096
:1002E000888F9B8D8C8D98131AC0E889F98980813D
:1002F00085FF15C09FB7F894EE89FF896083E88970
:10030000F98980818370806480839FBF81E090E061
:10031000DF91CF911F910F91FF90EF900895F62EEE
:100320000B8D10E00F5F1F4F0F731127E02E8C8D88
:100330008E110CC00FB607FCFACFE889F9898081CD
:1003400085FFF5CFCE010E942601F1CFEB8DEC0F9A
:10035000FD2FF11DE35AFF4FF0829FB7F8940B8FEA
:10036000EA89FB8980818062CFCFCF92DF92EF92C2
:10037000FF921F93CF93DF93EC016A017B01122F51
:10038000E889F98982E08083C11481EED806E1040E
:10039000F104A1F060E079E08DE390E0A70196011F
:1003A0000E942F0421503109410951095695479562
:1003B00037952795211580E1380798F0E889F98964
:1003C000108260E874E88EE190E0A70196010E9437
:1003D0002F04215031094109510956954795379508
:1003E0002795EC85FD853083EE85FF852083188E6B
:1003F000EC89FD891083EA89FB8980818061808393
:10040000EA89FB89808188608083EA89FB89808111
:1004100080688083EA89FB8980818F7D8083DF917A
:10042000CF911F91FF90EF90DF90CF9008951F9292
:100430000F920FB60F9211242F938F939F93EF93E8
:10044000FF93E0913401F09135018081E0913A0110
:10045000F0913B0182FD1BC0908180913D018F5F37
:100460008F7320913E01821741F0E0913D01F0E051
:10047000EC5DFE4F958F80933D01FF91EF919F9131
:100480008F912F910F900FBE0F901F901895808124
:10049000F4CF1F920F920FB60F9211242F933F9318
:1004A0004F935F936F937F938F939F93AF93BF937C
:1004B000EF93FF9384E291E00E942601FF91EF9178
:1004C000BF91AF919F918F917F916F915F914F916C
:1004D0003F912F910F900FBE0F901F90189584E2BF
:1004E00091E00E94DB0021E0892B09F420E0822FBB
:1004F0000895E4E2F1E01382128288EE93E0A0E036
:10050000B0E084839583A683B78384E091E09183F0
:10051000808385EC90E09587848784EC90E09787D2
:10052000868780EC90E0918B808B81EC90E0938BC0
:10053000828B82EC90E0958B848B86EC90E0978B9D
:10054000868B118E128E138E148E0895AF92BF92E9
:10055000CF92DF92EF92FF920F931F93CF93DF938F
:100560006C017B018B01040F151FEB015E01AE18BE
:10057000BF08C017D10759F06991D601ED91FC91E0
:100580000190F081E02DC6010995892B79F7C5010D
:10059000DF91CF911F910F91FF90EF90DF90CF905F
:1005A000BF90AF900895FB0101900020E9F73197CB
:1005B000AF01461B570BDC01ED91FC910280F381EA
:1005C000E02D0994DC01ED91FC910190F081E02D8A
:1005D000099462E171E00C94D3020F931F93CF93BF
:1005E000DF93EC010E94E2028C01CE010E94E9023D
:1005F000800F911FDF91CF911F910F910895089562
:100600000E94B7030E94FF020E94BB00C8E1D1E034
:100610000E94BF002097E1F30E941801F9CF1F92BA
:100620000F920FB60F9211242F933F938F939F93A6
:10063000AF93BF938091C2019091C301A091C40177
:10064000B091C5013091C10123E0230F2D3758F53A
:100650000196A11DB11D2093C1018093C201909309
:10066000C301A093C401B093C5018091C6019091CC
:10067000C701A091C801B091C9010196A11DB11D8A
:100680008093C6019093C701A093C801B093C9019C
:10069000BF91AF919F918F913F912F910F900FBE7E
:1006A0000F901F90189526E8230F0296A11DB11DEB
:1006B000D2CF3FB7F8948091C6019091C701A09125
:1006C000C801B091C90126B5A89B05C02F3F19F0FC
:1006D0000196A11DB11D3FBFBA2FA92F982F8827C2
:1006E000BC01CD01620F711D811D911D42E0660F9D
:1006F000771F881F991F4A95D1F708958F929F926F
:10070000AF92BF92CF92DF92EF92FF926B017C018A
:100710000E9459034B015C01C114D104E104F104AE
:10072000E9F00E942E040E945903681979098A0988
:100730009B09683E73408105910570F321E0C21A60
:10074000D108E108F10888EE880E83E0981EA11C0C
:10075000B11CC114D104E104F10429F7FF90EF901A
:10076000DF90CF90BF90AF909F908F900895789436
:1007700084B5826084BD84B5816084BD85B58260A6
:1007800085BD85B5816085BDEEE6F0E08081816044
:100790008083E1E8F0E01082808182608083808144
:1007A00081608083E0E8F0E0808181608083E1EB1C
:1007B000F0E0808184608083E0EBF0E08081816004
:1007C0008083EAE7F0E080818460808380818260BA
:1007D00080838081816080838081806880831092A3
:1007E000C1000895CF93DF9390E0FC01E859FF4FDB
:1007F000249184589F4FFC0184918823C9F090E094
:10080000880F991FFC01E656FF4FA591B491FC019A
:10081000E057FF4FC591D49161110DC09FB7F89477
:100820008C91209582238C938881282328839FBFD5
:10083000DF91CF910895623051F49FB7F8943C91C5
:10084000822F809583238C93E8812E2BEFCF8FB757
:10085000F894EC912E2B2C938FBFEACF0895A1E250
:100860001A2EAA1BBB1BFD010DC0AA1FBB1FEE1F2A
:10087000FF1FA217B307E407F50720F0A21BB30B75
:10088000E40BF50B661F771F881F991F1A9469F7F1
:1008900060957095809590959B01AC01BD01CF014D
:1008A0000895EE0FFF1F0590F491E02D0994F89440
:0208B000FFCF78
:1008B200000000006801A60209014801DB00F50002
:0608C200E7000D0A000032
:00000001FF
